{
  "_format": "hh-sol-artifact-1",
  "contractName": "StrainzNFT",
  "sourceName": "contracts/StrainzNFT/StrainzNFT.sol",
  "abi": [
    {
      "inputs": [
        {
          "internalType": "contract StrainzToken",
          "name": "_strainz",
          "type": "address"
        },
        {
          "internalType": "contract SeedzToken",
          "name": "_seedz",
          "type": "address"
        },
        {
          "internalType": "contract StrainzAccessory",
          "name": "_accessory",
          "type": "address"
        }
      ],
      "stateMutability": "nonpayable",
      "type": "constructor"
    },
    {
      "anonymous": false,
      "inputs": [
        {
          "indexed": true,
          "internalType": "address",
          "name": "owner",
          "type": "address"
        },
        {
          "indexed": true,
          "internalType": "address",
          "name": "approved",
          "type": "address"
        },
        {
          "indexed": true,
          "internalType": "uint256",
          "name": "tokenId",
          "type": "uint256"
        }
      ],
      "name": "Approval",
      "type": "event"
    },
    {
      "anonymous": false,
      "inputs": [
        {
          "indexed": true,
          "internalType": "address",
          "name": "owner",
          "type": "address"
        },
        {
          "indexed": true,
          "internalType": "address",
          "name": "operator",
          "type": "address"
        },
        {
          "indexed": false,
          "internalType": "bool",
          "name": "approved",
          "type": "bool"
        }
      ],
      "name": "ApprovalForAll",
      "type": "event"
    },
    {
      "anonymous": false,
      "inputs": [
        {
          "indexed": false,
          "internalType": "uint256",
          "name": "parent1",
          "type": "uint256"
        },
        {
          "indexed": false,
          "internalType": "uint256",
          "name": "parent2",
          "type": "uint256"
        },
        {
          "indexed": false,
          "internalType": "uint256",
          "name": "child",
          "type": "uint256"
        }
      ],
      "name": "Breed",
      "type": "event"
    },
    {
      "anonymous": false,
      "inputs": [
        {
          "indexed": false,
          "internalType": "uint256",
          "name": "tokenId",
          "type": "uint256"
        }
      ],
      "name": "Composted",
      "type": "event"
    },
    {
      "anonymous": false,
      "inputs": [
        {
          "indexed": false,
          "internalType": "uint256",
          "name": "tokenId",
          "type": "uint256"
        }
      ],
      "name": "Minted",
      "type": "event"
    },
    {
      "anonymous": false,
      "inputs": [
        {
          "indexed": true,
          "internalType": "address",
          "name": "previousOwner",
          "type": "address"
        },
        {
          "indexed": true,
          "internalType": "address",
          "name": "newOwner",
          "type": "address"
        }
      ],
      "name": "OwnershipTransferred",
      "type": "event"
    },
    {
      "anonymous": false,
      "inputs": [
        {
          "indexed": false,
          "internalType": "uint256",
          "name": "tokenId",
          "type": "uint256"
        }
      ],
      "name": "StrainModified",
      "type": "event"
    },
    {
      "anonymous": false,
      "inputs": [
        {
          "indexed": true,
          "internalType": "address",
          "name": "from",
          "type": "address"
        },
        {
          "indexed": true,
          "internalType": "address",
          "name": "to",
          "type": "address"
        },
        {
          "indexed": true,
          "internalType": "uint256",
          "name": "tokenId",
          "type": "uint256"
        }
      ],
      "name": "Transfer",
      "type": "event"
    },
    {
      "inputs": [],
      "name": "accessory",
      "outputs": [
        {
          "internalType": "contract StrainzAccessory",
          "name": "",
          "type": "address"
        }
      ],
      "stateMutability": "view",
      "type": "function"
    },
    {
      "inputs": [
        {
          "internalType": "address",
          "name": "to",
          "type": "address"
        },
        {
          "internalType": "uint256",
          "name": "tokenId",
          "type": "uint256"
        }
      ],
      "name": "approve",
      "outputs": [],
      "stateMutability": "nonpayable",
      "type": "function"
    },
    {
      "inputs": [
        {
          "internalType": "address",
          "name": "owner",
          "type": "address"
        }
      ],
      "name": "balanceOf",
      "outputs": [
        {
          "internalType": "uint256",
          "name": "",
          "type": "uint256"
        }
      ],
      "stateMutability": "view",
      "type": "function"
    },
    {
      "inputs": [
        {
          "internalType": "uint256",
          "name": "_first",
          "type": "uint256"
        },
        {
          "internalType": "uint256",
          "name": "_second",
          "type": "uint256"
        },
        {
          "internalType": "bool",
          "name": "breedFertilizer",
          "type": "bool"
        }
      ],
      "name": "breed",
      "outputs": [],
      "stateMutability": "nonpayable",
      "type": "function"
    },
    {
      "inputs": [],
      "name": "breedFertilizerCost",
      "outputs": [
        {
          "internalType": "uint256",
          "name": "",
          "type": "uint256"
        }
      ],
      "stateMutability": "view",
      "type": "function"
    },
    {
      "inputs": [],
      "name": "breedPercent",
      "outputs": [
        {
          "internalType": "uint256",
          "name": "",
          "type": "uint256"
        }
      ],
      "stateMutability": "view",
      "type": "function"
    },
    {
      "inputs": [],
      "name": "breedingCostFactor",
      "outputs": [
        {
          "internalType": "uint256",
          "name": "",
          "type": "uint256"
        }
      ],
      "stateMutability": "view",
      "type": "function"
    },
    {
      "inputs": [
        {
          "internalType": "uint256",
          "name": "tokenId",
          "type": "uint256"
        },
        {
          "internalType": "uint256",
          "name": "red",
          "type": "uint256"
        },
        {
          "internalType": "uint256",
          "name": "green",
          "type": "uint256"
        },
        {
          "internalType": "uint256",
          "name": "blue",
          "type": "uint256"
        }
      ],
      "name": "changeColor",
      "outputs": [],
      "stateMutability": "nonpayable",
      "type": "function"
    },
    {
      "inputs": [
        {
          "internalType": "uint256",
          "name": "tokenId",
          "type": "uint256"
        },
        {
          "internalType": "string",
          "name": "prefix",
          "type": "string"
        },
        {
          "internalType": "string",
          "name": "postfix",
          "type": "string"
        }
      ],
      "name": "changeName",
      "outputs": [],
      "stateMutability": "nonpayable",
      "type": "function"
    },
    {
      "inputs": [
        {
          "internalType": "uint256",
          "name": "value",
          "type": "uint256"
        },
        {
          "internalType": "uint256",
          "name": "min",
          "type": "uint256"
        },
        {
          "internalType": "uint256",
          "name": "max",
          "type": "uint256"
        }
      ],
      "name": "clamp",
      "outputs": [
        {
          "internalType": "uint256",
          "name": "",
          "type": "uint256"
        }
      ],
      "stateMutability": "pure",
      "type": "function"
    },
    {
      "inputs": [],
      "name": "colorCost",
      "outputs": [
        {
          "internalType": "uint256",
          "name": "",
          "type": "uint256"
        }
      ],
      "stateMutability": "view",
      "type": "function"
    },
    {
      "inputs": [
        {
          "internalType": "uint256",
          "name": "strainId",
          "type": "uint256"
        }
      ],
      "name": "compost",
      "outputs": [],
      "stateMutability": "nonpayable",
      "type": "function"
    },
    {
      "inputs": [],
      "name": "compostFactor",
      "outputs": [
        {
          "internalType": "uint256",
          "name": "",
          "type": "uint256"
        }
      ],
      "stateMutability": "view",
      "type": "function"
    },
    {
      "inputs": [
        {
          "internalType": "uint256",
          "name": "tokenId",
          "type": "uint256"
        }
      ],
      "name": "getApproved",
      "outputs": [
        {
          "internalType": "address",
          "name": "",
          "type": "address"
        }
      ],
      "stateMutability": "view",
      "type": "function"
    },
    {
      "inputs": [
        {
          "internalType": "uint256",
          "name": "dna",
          "type": "uint256"
        }
      ],
      "name": "getBlueGene",
      "outputs": [
        {
          "internalType": "uint256",
          "name": "",
          "type": "uint256"
        }
      ],
      "stateMutability": "pure",
      "type": "function"
    },
    {
      "inputs": [
        {
          "internalType": "uint256",
          "name": "plantId",
          "type": "uint256"
        }
      ],
      "name": "getCurrentGrowRateForPlant",
      "outputs": [
        {
          "internalType": "uint256",
          "name": "",
          "type": "uint256"
        }
      ],
      "stateMutability": "view",
      "type": "function"
    },
    {
      "inputs": [
        {
          "internalType": "uint256",
          "name": "dna",
          "type": "uint256"
        },
        {
          "internalType": "uint256",
          "name": "n",
          "type": "uint256"
        }
      ],
      "name": "getGene",
      "outputs": [
        {
          "internalType": "uint256",
          "name": "",
          "type": "uint256"
        }
      ],
      "stateMutability": "pure",
      "type": "function"
    },
    {
      "inputs": [
        {
          "internalType": "uint256",
          "name": "dna",
          "type": "uint256"
        }
      ],
      "name": "getGreenGene",
      "outputs": [
        {
          "internalType": "uint256",
          "name": "",
          "type": "uint256"
        }
      ],
      "stateMutability": "pure",
      "type": "function"
    },
    {
      "inputs": [
        {
          "internalType": "uint256",
          "name": "dna",
          "type": "uint256"
        }
      ],
      "name": "getRedGene",
      "outputs": [
        {
          "internalType": "uint256",
          "name": "",
          "type": "uint256"
        }
      ],
      "stateMutability": "pure",
      "type": "function"
    },
    {
      "inputs": [
        {
          "internalType": "uint256",
          "name": "tokenId",
          "type": "uint256"
        }
      ],
      "name": "getWateringCost",
      "outputs": [
        {
          "internalType": "uint256",
          "name": "",
          "type": "uint256"
        }
      ],
      "stateMutability": "view",
      "type": "function"
    },
    {
      "inputs": [],
      "name": "growFactor",
      "outputs": [
        {
          "internalType": "uint256",
          "name": "",
          "type": "uint256"
        }
      ],
      "stateMutability": "view",
      "type": "function"
    },
    {
      "inputs": [],
      "name": "harvestAndWaterAll",
      "outputs": [],
      "stateMutability": "nonpayable",
      "type": "function"
    },
    {
      "inputs": [
        {
          "internalType": "uint256",
          "name": "tokenId",
          "type": "uint256"
        }
      ],
      "name": "harvestableAmount",
      "outputs": [
        {
          "internalType": "uint256",
          "name": "",
          "type": "uint256"
        }
      ],
      "stateMutability": "view",
      "type": "function"
    },
    {
      "inputs": [
        {
          "internalType": "address",
          "name": "owner",
          "type": "address"
        },
        {
          "internalType": "address",
          "name": "operator",
          "type": "address"
        }
      ],
      "name": "isApprovedForAll",
      "outputs": [
        {
          "internalType": "bool",
          "name": "",
          "type": "bool"
        }
      ],
      "stateMutability": "view",
      "type": "function"
    },
    {
      "inputs": [
        {
          "internalType": "address",
          "name": "user",
          "type": "address"
        },
        {
          "internalType": "contract IStrainzNFTV2",
          "name": "nftV2",
          "type": "address"
        },
        {
          "internalType": "contract IAccessoryV2",
          "name": "accessoryV2",
          "type": "address"
        }
      ],
      "name": "migrate",
      "outputs": [],
      "stateMutability": "nonpayable",
      "type": "function"
    },
    {
      "inputs": [],
      "name": "migrator",
      "outputs": [
        {
          "internalType": "address",
          "name": "",
          "type": "address"
        }
      ],
      "stateMutability": "view",
      "type": "function"
    },
    {
      "inputs": [
        {
          "internalType": "address",
          "name": "receiver",
          "type": "address"
        },
        {
          "internalType": "string",
          "name": "prefix",
          "type": "string"
        },
        {
          "internalType": "string",
          "name": "postfix",
          "type": "string"
        },
        {
          "internalType": "uint256",
          "name": "dna",
          "type": "uint256"
        }
      ],
      "name": "mintPromotion",
      "outputs": [],
      "stateMutability": "nonpayable",
      "type": "function"
    },
    {
      "inputs": [
        {
          "internalType": "uint256",
          "name": "dna1",
          "type": "uint256"
        },
        {
          "internalType": "uint256",
          "name": "dna2",
          "type": "uint256"
        }
      ],
      "name": "mixDNA",
      "outputs": [
        {
          "internalType": "uint256",
          "name": "",
          "type": "uint256"
        }
      ],
      "stateMutability": "view",
      "type": "function"
    },
    {
      "inputs": [],
      "name": "name",
      "outputs": [
        {
          "internalType": "string",
          "name": "",
          "type": "string"
        }
      ],
      "stateMutability": "view",
      "type": "function"
    },
    {
      "inputs": [],
      "name": "nameCost",
      "outputs": [
        {
          "internalType": "uint256",
          "name": "",
          "type": "uint256"
        }
      ],
      "stateMutability": "view",
      "type": "function"
    },
    {
      "inputs": [],
      "name": "owner",
      "outputs": [
        {
          "internalType": "address",
          "name": "",
          "type": "address"
        }
      ],
      "stateMutability": "view",
      "type": "function"
    },
    {
      "inputs": [
        {
          "internalType": "uint256",
          "name": "tokenId",
          "type": "uint256"
        }
      ],
      "name": "ownerOf",
      "outputs": [
        {
          "internalType": "address",
          "name": "",
          "type": "address"
        }
      ],
      "stateMutability": "view",
      "type": "function"
    },
    {
      "inputs": [],
      "name": "renounceOwnership",
      "outputs": [],
      "stateMutability": "nonpayable",
      "type": "function"
    },
    {
      "inputs": [
        {
          "internalType": "address",
          "name": "from",
          "type": "address"
        },
        {
          "internalType": "address",
          "name": "to",
          "type": "address"
        },
        {
          "internalType": "uint256",
          "name": "tokenId",
          "type": "uint256"
        }
      ],
      "name": "safeTransferFrom",
      "outputs": [],
      "stateMutability": "nonpayable",
      "type": "function"
    },
    {
      "inputs": [
        {
          "internalType": "address",
          "name": "from",
          "type": "address"
        },
        {
          "internalType": "address",
          "name": "to",
          "type": "address"
        },
        {
          "internalType": "uint256",
          "name": "tokenId",
          "type": "uint256"
        },
        {
          "internalType": "bytes",
          "name": "_data",
          "type": "bytes"
        }
      ],
      "name": "safeTransferFrom",
      "outputs": [],
      "stateMutability": "nonpayable",
      "type": "function"
    },
    {
      "inputs": [],
      "name": "seedzToken",
      "outputs": [
        {
          "internalType": "contract SeedzToken",
          "name": "",
          "type": "address"
        }
      ],
      "stateMutability": "view",
      "type": "function"
    },
    {
      "inputs": [
        {
          "internalType": "address",
          "name": "operator",
          "type": "address"
        },
        {
          "internalType": "bool",
          "name": "approved",
          "type": "bool"
        }
      ],
      "name": "setApprovalForAll",
      "outputs": [],
      "stateMutability": "nonpayable",
      "type": "function"
    },
    {
      "inputs": [
        {
          "internalType": "uint256",
          "name": "newBreedFertilizerCost",
          "type": "uint256"
        }
      ],
      "name": "setBreedFertilizerCost",
      "outputs": [],
      "stateMutability": "nonpayable",
      "type": "function"
    },
    {
      "inputs": [
        {
          "internalType": "uint256",
          "name": "newPercent",
          "type": "uint256"
        }
      ],
      "name": "setBreedPercent",
      "outputs": [],
      "stateMutability": "nonpayable",
      "type": "function"
    },
    {
      "inputs": [
        {
          "internalType": "uint256",
          "name": "newBreedingCostFactor",
          "type": "uint256"
        }
      ],
      "name": "setBreedingCostFactor",
      "outputs": [],
      "stateMutability": "nonpayable",
      "type": "function"
    },
    {
      "inputs": [
        {
          "internalType": "uint256",
          "name": "newCost",
          "type": "uint256"
        }
      ],
      "name": "setColorCost",
      "outputs": [],
      "stateMutability": "nonpayable",
      "type": "function"
    },
    {
      "inputs": [
        {
          "internalType": "uint256",
          "name": "newCompostFactor",
          "type": "uint256"
        }
      ],
      "name": "setCompostFactor",
      "outputs": [],
      "stateMutability": "nonpayable",
      "type": "function"
    },
    {
      "inputs": [
        {
          "internalType": "uint256",
          "name": "newGrowFactor",
          "type": "uint256"
        }
      ],
      "name": "setGrowFactor",
      "outputs": [],
      "stateMutability": "nonpayable",
      "type": "function"
    },
    {
      "inputs": [
        {
          "internalType": "address",
          "name": "_migrator",
          "type": "address"
        }
      ],
      "name": "setMigrator",
      "outputs": [],
      "stateMutability": "nonpayable",
      "type": "function"
    },
    {
      "inputs": [
        {
          "internalType": "uint256",
          "name": "newCost",
          "type": "uint256"
        }
      ],
      "name": "setNameCost",
      "outputs": [],
      "stateMutability": "nonpayable",
      "type": "function"
    },
    {
      "inputs": [
        {
          "internalType": "uint256",
          "name": "",
          "type": "uint256"
        }
      ],
      "name": "strainData",
      "outputs": [
        {
          "internalType": "uint256",
          "name": "id",
          "type": "uint256"
        },
        {
          "internalType": "string",
          "name": "prefix",
          "type": "string"
        },
        {
          "internalType": "string",
          "name": "postfix",
          "type": "string"
        },
        {
          "internalType": "uint256",
          "name": "dna",
          "type": "uint256"
        },
        {
          "internalType": "uint256",
          "name": "generation",
          "type": "uint256"
        },
        {
          "internalType": "uint256",
          "name": "growRate",
          "type": "uint256"
        },
        {
          "internalType": "uint256",
          "name": "lastHarvest",
          "type": "uint256"
        },
        {
          "internalType": "uint256",
          "name": "breedingCost",
          "type": "uint256"
        }
      ],
      "stateMutability": "view",
      "type": "function"
    },
    {
      "inputs": [],
      "name": "strainzToken",
      "outputs": [
        {
          "internalType": "contract StrainzToken",
          "name": "",
          "type": "address"
        }
      ],
      "stateMutability": "view",
      "type": "function"
    },
    {
      "inputs": [
        {
          "internalType": "bytes4",
          "name": "interfaceId",
          "type": "bytes4"
        }
      ],
      "name": "supportsInterface",
      "outputs": [
        {
          "internalType": "bool",
          "name": "",
          "type": "bool"
        }
      ],
      "stateMutability": "view",
      "type": "function"
    },
    {
      "inputs": [],
      "name": "symbol",
      "outputs": [
        {
          "internalType": "string",
          "name": "",
          "type": "string"
        }
      ],
      "stateMutability": "view",
      "type": "function"
    },
    {
      "inputs": [
        {
          "internalType": "uint256",
          "name": "index",
          "type": "uint256"
        }
      ],
      "name": "tokenByIndex",
      "outputs": [
        {
          "internalType": "uint256",
          "name": "",
          "type": "uint256"
        }
      ],
      "stateMutability": "view",
      "type": "function"
    },
    {
      "inputs": [],
      "name": "tokenCount",
      "outputs": [
        {
          "internalType": "uint256",
          "name": "",
          "type": "uint256"
        }
      ],
      "stateMutability": "view",
      "type": "function"
    },
    {
      "inputs": [
        {
          "internalType": "address",
          "name": "owner",
          "type": "address"
        },
        {
          "internalType": "uint256",
          "name": "index",
          "type": "uint256"
        }
      ],
      "name": "tokenOfOwnerByIndex",
      "outputs": [
        {
          "internalType": "uint256",
          "name": "",
          "type": "uint256"
        }
      ],
      "stateMutability": "view",
      "type": "function"
    },
    {
      "inputs": [
        {
          "internalType": "uint256",
          "name": "tokenId",
          "type": "uint256"
        }
      ],
      "name": "tokenURI",
      "outputs": [
        {
          "internalType": "string",
          "name": "",
          "type": "string"
        }
      ],
      "stateMutability": "view",
      "type": "function"
    },
    {
      "inputs": [],
      "name": "totalSupply",
      "outputs": [
        {
          "internalType": "uint256",
          "name": "",
          "type": "uint256"
        }
      ],
      "stateMutability": "view",
      "type": "function"
    },
    {
      "inputs": [
        {
          "internalType": "address",
          "name": "from",
          "type": "address"
        },
        {
          "internalType": "address",
          "name": "to",
          "type": "address"
        },
        {
          "internalType": "uint256",
          "name": "tokenId",
          "type": "uint256"
        }
      ],
      "name": "transferFrom",
      "outputs": [],
      "stateMutability": "nonpayable",
      "type": "function"
    },
    {
      "inputs": [
        {
          "internalType": "address",
          "name": "newOwner",
          "type": "address"
        }
      ],
      "name": "transferOwnership",
      "outputs": [],
      "stateMutability": "nonpayable",
      "type": "function"
    },
    {
      "inputs": [],
      "name": "wateringPenaltyPerDay",
      "outputs": [
        {
          "internalType": "uint256",
          "name": "",
          "type": "uint256"
        }
      ],
      "stateMutability": "view",
      "type": "function"
    }
  ],
  "bytecode": "0x6080604052600a600c556331160fc4600d55600a600e556014600f55683635c9adc5dea000006010556019601155603260125560646013553480156200004457600080fd5b506040516200487c3803806200487c833981016040819052620000679162000225565b6040518060400160405280600781526020016629ba3930b4b73d60c91b8152506040518060400160405280600781526020016629aa2920a4a72d60c91b8152508160009080519060200190620000bf9291906200017f565b508051620000d59060019060208401906200017f565b5050506000620000ea6200017b60201b60201c565b600a80546001600160a01b0319166001600160a01b038316908117909155604051919250906000907f8be0079c531659141344cd1fd0a4f28419497f9722a3daafe3b4186f6b6457e0908290a350601680546001600160a01b039485166001600160a01b031991821617909155601780549385169382169390931790925560188054919093169116179055620002ce565b3390565b8280546200018d9062000278565b90600052602060002090601f016020900481019282620001b15760008555620001fc565b82601f10620001cc57805160ff1916838001178555620001fc565b82800160010185558215620001fc579182015b82811115620001fc578251825591602001919060010190620001df565b506200020a9291506200020e565b5090565b5b808211156200020a57600081556001016200020f565b6000806000606084860312156200023a578283fd5b83516200024781620002b5565b60208501519093506200025a81620002b5565b60408501519092506200026d81620002b5565b809150509250925092565b6002810460018216806200028d57607f821691505b60208210811415620002af57634e487b7160e01b600052602260045260246000fd5b50919050565b6001600160a01b0381168114620002cb57600080fd5b50565b61459e80620002de6000396000f3fe608060405234801561001057600080fd5b50600436106103835760003560e01c80636352211e116101de578063a2f6031f1161010f578063e14285bb116100ad578063eeaf254c1161007c578063eeaf254c14610774578063f2fde38b14610787578063fb3576fa1461079a578063fe43e58d146107a357610383565b8063e14285bb146106ff578063e1bb725714610726578063e37b1be01461072f578063e985e9c51461073857610383565b8063bdf30d8f116100e9578063bdf30d8f146106be578063c87b56dd146106d1578063c9d658f0146106e4578063df9eaecb146106f757610383565b8063a2f6031f14610685578063a7db765914610698578063b88d4fde146106ab57610383565b80637cd07e471161017c57806395d89b411161015657806395d89b411461064f5780639e422447146106575780639f181b5e1461066a578063a22cb4651461067257610383565b80637cd07e4714610618578063824bcb271461062b5780638da5cb5b1461063e57610383565b80636cf683da116101b85780636cf683da146105d757806370a08231146105ea578063714cb50f146105fd578063715018a61461061057610383565b80636352211e146105a857806363bd53bd146105bb578063663a2d6d146105c457610383565b806323cf3118116102b857806342842e0e1161025657806354314d7c1161023057806354314d7c1461055c57806355cc86271461056f5780635b6988cb14610582578063629b7d731461059557610383565b806342842e0e1461052d5780634f6ccce7146105405780634fce93351461055357610383565b80632f745c59116102925780632f745c59146104e15780633538339f146104f45780633ba66b9d14610507578063410b49d41461051a57610383565b806323cf3118146104b25780632883cc1f146104c55780632a8757bf146104d857610383565b80631424494d1161032557806319066bcd116102ff57806319066bcd1461046657806320603fed1461047957806322fcdcf71461048c57806323b872dd1461049f57610383565b80631424494d1461043857806316ed2ec01461044b57806318160ddd1461045e57610383565b806306fdde031161036157806306fdde03146103da578063081812fc146103ef578063095ea7b31461041a578063130223941461042f57610383565b806301ffc9a714610388578063037e3725146103b057806304976ba6146103c7575b600080fd5b61039b610396366004613eb2565b6107b6565b60405190151581526020015b60405180910390f35b6103b9600d5481565b6040519081526020016103a7565b6103b96103d5366004613eea565b6107fc565b6103e2610876565b6040516103a791906141e3565b6104026103fd366004613eea565b610908565b6040516001600160a01b0390911681526020016103a7565b61042d610428366004613e87565b6109a2565b005b6103b9600f5481565b61042d610446366004613eea565b610ad4565b61042d610459366004613eea565b610c64565b6008546103b9565b61042d610474366004613eea565b610cb1565b6103b9610487366004613eea565b610cfe565b61042d61049a36600461404d565b610dd2565b61042d6104ad366004613cd1565b611061565b61042d6104c0366004613c7d565b6110e8565b61042d6104d3366004613eea565b611152565b6103b960105481565b6103b96104ef366004613e87565b61119f565b6103b9610502366004613eea565b61124a565b61042d610515366004613f1a565b611258565b61042d610528366004613e0c565b6113aa565b61042d61053b366004613cd1565b611409565b6103b961054e366004613eea565b611424565b6103b960125481565b6103b961056a366004613eea565b6114d6565b601754610402906001600160a01b031681565b61042d610590366004613eea565b611506565b6103b96105a336600461402c565b611553565b6104026105b6366004613eea565b611588565b6103b960115481565b61042d6105d2366004613eea565b611613565b6103b96105e536600461402c565b611660565b6103b96105f8366004613c7d565b611983565b6103b961060b366004613eea565b611a1d565b61042d611bc1565b601554610402906001600160a01b031681565b61042d6106393660046140ac565b611c53565b600a546001600160a01b0316610402565b6103e2611d74565b6103b9610665366004614081565b611d83565b6103b9611da8565b61042d610680366004613d8e565b611db8565b6103b9610693366004613eea565b611e8a565b61042d6106a6366004613eea565b611ea8565b61042d6106b9366004613d11565b611ef5565b601854610402906001600160a01b031681565b6103e26106df366004613eea565b611f83565b61042d6106f2366004613dc2565b61206b565b61042d6124a8565b61071261070d366004613eea565b6125ba565b6040516103a79897969594939291906141f6565b6103b9600c5481565b6103b960135481565b61039b610746366004613c99565b6001600160a01b03918216600090815260056020908152604080832093909416825291909152205460ff1690565b61042d610782366004613eea565b61270b565b61042d610795366004613c7d565b612758565b6103b9600e5481565b601654610402906001600160a01b031681565b60006001600160e01b031982167f780e9d630000000000000000000000000000000000000000000000000000000014806107f457506107f482612878565b90505b919050565b6000818152601460205260408120600681015482906108289061081f9042614408565b620bdd80612913565b905061086e60016283d60083600c54866005015461084691906143e9565b61085091906143e9565b61085a91906142c1565b84600501546108699190614408565b61292b565b949350505050565b6060600080546108859061444b565b80601f01602080910402602001604051908101604052809291908181526020018280546108b19061444b565b80156108fe5780601f106108d3576101008083540402835291602001916108fe565b820191906000526020600020905b8154815290600101906020018083116108e157829003601f168201915b5050505050905090565b6000818152600260205260408120546001600160a01b03166109865760405162461bcd60e51b815260206004820152602c60248201527f4552433732313a20617070726f76656420717565727920666f72206e6f6e657860448201526b34b9ba32b73a103a37b5b2b760a11b60648201526084015b60405180910390fd5b506000908152600460205260409020546001600160a01b031690565b60006109ad82611588565b9050806001600160a01b0316836001600160a01b03161415610a375760405162461bcd60e51b815260206004820152602160248201527f4552433732313a20617070726f76616c20746f2063757272656e74206f776e6560448201527f7200000000000000000000000000000000000000000000000000000000000000606482015260840161097d565b336001600160a01b0382161480610a535750610a538133610746565b610ac55760405162461bcd60e51b815260206004820152603860248201527f4552433732313a20617070726f76652063616c6c6572206973206e6f74206f7760448201527f6e6572206e6f7220617070726f76656420666f7220616c6c0000000000000000606482015260840161097d565b610acf838361293c565b505050565b33610ade82611588565b6001600160a01b031614610af157600080fd5b6000818152601460205260409081902060185491517f9d0cd89e0000000000000000000000000000000000000000000000000000000081526004810184905290916001600160a01b031690639d0cd89e90602401600060405180830381600087803b158015610b5f57600080fd5b505af1158015610b73573d6000803e3d6000fd5b50505050610b80826129aa565b601754600e5460058301546001600160a01b03909216916340c10f1991339160649190610bb590670de0b6b3a76400006143e9565b610bbf91906143e9565b610bc991906142c1565b6040516001600160e01b031960e085901b1681526001600160a01b0390921660048301526024820152604401600060405180830381600087803b158015610c0f57600080fd5b505af1158015610c23573d6000803e3d6000fd5b505050507f30f6ee1c7b8eb7349c887acbbbd691fc92bd38eacc6341de20458431525e610c82604051610c5891815260200190565b60405180910390a15050565b600a546001600160a01b03163314610cac5760405162461bcd60e51b81526020600482018190526024820152600080516020614526833981519152604482015260640161097d565b600e55565b600a546001600160a01b03163314610cf95760405162461bcd60e51b81526020600482018190526024820152600080516020614526833981519152604482015260640161097d565b601155565b600081815260146020526040812081610d16846107fc565b90506000818360050154610d2a9190614408565b90506000610d3a6105f887611588565b9050600160fa821115610d4f57506009610db1565b60c8821115610d6057506008610db1565b6064821115610d7157506007610db1565b6032821115610d8257506006610db1565b6019821115610d9357506005610db1565b600a821115610da457506003610db1565b6005821115610db1575060025b610dbb83826143e9565b610dc7906127106143e9565b979650505050505050565b33610ddc84611588565b6001600160a01b0316148015610e02575033610df783611588565b6001600160a01b0316145b610e0b57600080fd5b6000838152601460205260408082208483529082206007808201549083015492939192600291610e3a916142a9565b610e4491906142c1565b6016549091506001600160a01b03166379cc679033610e65846127106143e9565b6040516001600160e01b031960e085901b1681526001600160a01b0390921660048301526024820152604401600060405180830381600087803b158015610eab57600080fd5b505af1158015610ebf573d6000803e3d6000fd5b505050506000600283600501548560050154610edb91906142a9565b610ee591906142c1565b90506000610ef38585612a51565b905085156110125760808211610f0857600080fd5b6017546010546040517f79cc679000000000000000000000000000000000000000000000000000000000815233600482015260248101919091526001600160a01b03909116906379cc679090604401600060405180830381600087803b158015610f7157600080fd5b505af1158015610f85573d6000803e3d6000fd5b5050601854875487546040517f2b6d06a400000000000000000000000000000000000000000000000000000000815260048101929092526024820152604481018590526001600160a01b039091169250632b6d06a49150606401600060405180830381600087803b158015610ff957600080fd5b505af115801561100d573d6000803e3d6000fd5b505050505b8454845460408051928352602083019190915281018290527f9ca383290f66cf05e07fed022366cb0e56f67485387cbc0a5911e8c6fc8045539060600160405180910390a15050505050505050565b61106b3382612c3a565b6110dd5760405162461bcd60e51b815260206004820152603160248201527f4552433732313a207472616e736665722063616c6c6572206973206e6f74206f60448201527f776e6572206e6f7220617070726f766564000000000000000000000000000000606482015260840161097d565b610acf838383612d2d565b600a546001600160a01b031633146111305760405162461bcd60e51b81526020600482018190526024820152600080516020614526833981519152604482015260640161097d565b601580546001600160a01b0319166001600160a01b0392909216919091179055565b600a546001600160a01b0316331461119a5760405162461bcd60e51b81526020600482018190526024820152600080516020614526833981519152604482015260640161097d565b601055565b60006111aa83611983565b821061121e5760405162461bcd60e51b815260206004820152602b60248201527f455243373231456e756d657261626c653a206f776e657220696e646578206f7560448201527f74206f6620626f756e6473000000000000000000000000000000000000000000606482015260840161097d565b506001600160a01b03821660009081526006602090815260408083208484529091529020545b92915050565b60006107f46103e8836144a1565b3361126286611588565b6001600160a01b03161461127557600080fd5b8281600182118015611288575060108211155b80156112945750600181115b80156112a1575060108111155b6112aa57600080fd5b6017546013546001600160a01b03909116906379cc67909033906112d690670de0b6b3a76400006143e9565b6040516001600160e01b031960e085901b1681526001600160a01b0390921660048301526024820152604401600060405180830381600087803b15801561131c57600080fd5b505af1158015611330573d6000803e3d6000fd5b505050600088815260146020526040902061135091506001018787613a79565b50600087815260146020526040902061136d906002018585613a79565b506040518781527f9271884e30d502aebfccb611c4b5a3c3b95a99fe763843e20253ce1890000d0c9060200160405180910390a150505050505050565b600a546001600160a01b031633146113f25760405162461bcd60e51b81526020600482018190526024820152600080516020614526833981519152604482015260640161097d565b61140284848484600060ff612f05565b5050505050565b610acf83838360405180602001604052806000815250611ef5565b600061142f60085490565b82106114a35760405162461bcd60e51b815260206004820152602c60248201527f455243373231456e756d657261626c653a20676c6f62616c20696e646578206f60448201527f7574206f6620626f756e64730000000000000000000000000000000000000000606482015260840161097d565b600882815481106114c457634e487b7160e01b600052603260045260246000fd5b90600052602060002001549050919050565b60006103e86114e581846144a1565b6114f2620f4240856144a1565b6114fc9190614408565b6107f491906142c1565b600a546001600160a01b0316331461154e5760405162461bcd60e51b81526020600482018190526024820152600080516020614526833981519152604482015260640161097d565b600d55565b6000600a61156283600f614408565b61156d90600a61431b565b61157790856142c1565b61158191906144a1565b9392505050565b6000818152600260205260408120546001600160a01b0316806107f45760405162461bcd60e51b815260206004820152602960248201527f4552433732313a206f776e657220717565727920666f72206e6f6e657869737460448201527f656e7420746f6b656e0000000000000000000000000000000000000000000000606482015260840161097d565b600a546001600160a01b0316331461165b5760405162461bcd60e51b81526020600482018190526024820152600080516020614526833981519152604482015260640161097d565b600f55565b60008061166e610100613035565b9050600060405180610140016040528060078461168c886000611553565b6116978a6000611553565b6116a191906143e9565b6116ab91906143e9565b6116b591906144a1565b6116c09060016142a9565b81526020016007846116d3886001611553565b6116de8a6001611553565b6116e891906143e9565b6116f291906143e9565b6116fc91906144a1565b6117079060016142a9565b815260200160068461171a886002611553565b6117258a6002611553565b61172f91906143e9565b61173991906143e9565b61174391906144a1565b61174e9060016142a9565b8152602001600584611761886003611553565b61176c8a6003611553565b61177691906143e9565b61178091906143e9565b61178a91906144a1565b6117959060016142a9565b8152602001600081526020016000815260200160008152602001610100846117bc88611e8a565b6117c58a611e8a565b6117cf91906143e9565b6117d991906142a9565b6117e391906144a1565b8152602001610100846117f5886114d6565b6117fe8a6114d6565b61180891906143e9565b61181291906142a9565b61181c91906144a1565b81526020016101008461182e8861124a565b6118378a61124a565b61184191906143e9565b61184b91906142a9565b61185591906144a1565b8152509050600061010082610120015161186f91906144a1565b610100830151611881906103e86143e9565b60e084015161189390620f42406143e9565b60c08501516118a690633b9aca006143e9565b60a08601516118ba906402540be4006143e9565b60808701516118ce9064174876e8006143e9565b60608801516118e29064e8d4a510006143e9565b60408901516118f7906509184e72a0006143e9565b60208a015161190c90655af3107a40006143e9565b8a5161191f9066038d7ea4c680006143e9565b61192991906142a9565b61193391906142a9565b61193d91906142a9565b61194791906142a9565b61195191906142a9565b61195b91906142a9565b61196591906142a9565b61196f91906142a9565b61197991906142a9565b9695505050505050565b60006001600160a01b038216611a015760405162461bcd60e51b815260206004820152602a60248201527f4552433732313a2062616c616e636520717565727920666f7220746865207a6560448201527f726f206164647265737300000000000000000000000000000000000000000000606482015260840161097d565b506001600160a01b031660009081526003602052604090205490565b600081815260146020526040812060068101548290611a3c9042614408565b60175460068401546040517f02ca671d0000000000000000000000000000000000000000000000000000000081526004810188905260248101919091529192506000916001600160a01b03909116906302ca671d9060440160206040518083038186803b158015611aac57600080fd5b505afa158015611ac0573d6000803e3d6000fd5b505050506040513d601f19601f82011682018060405250810190611ae49190613f02565b6018546040517f5a22f03e00000000000000000000000000000000000000000000000000000000815260048101889052602481018590529192506000916001600160a01b0390911690635a22f03e9060440160206040518083038186803b158015611b4e57600080fd5b505afa158015611b62573d6000803e3d6000fd5b505050506040513d601f19601f82011682018060405250810190611b869190613f02565b90506000611b9385613077565b9050611ba1826127106143e9565b611bad846127106143e9565b611bb790836142a9565b610dc791906142a9565b600a546001600160a01b03163314611c095760405162461bcd60e51b81526020600482018190526024820152600080516020614526833981519152604482015260640161097d565b600a546040516000916001600160a01b0316907f8be0079c531659141344cd1fd0a4f28419497f9722a3daafe3b4186f6b6457e0908390a3600a80546001600160a01b0319169055565b33611c5d85611588565b6001600160a01b031614611c7057600080fd5b6017546012546001600160a01b03909116906379cc6790903390611c9c90670de0b6b3a76400006143e9565b6040516001600160e01b031960e085901b1681526001600160a01b0390921660048301526024820152604401600060405180830381600087803b158015611ce257600080fd5b505af1158015611cf6573d6000803e3d6000fd5b50505060008581526014602052604081206003810154909250611d1b90868686613184565b60008781526014602052604090819020600301829055519091507f9271884e30d502aebfccb611c4b5a3c3b95a99fe763843e20253ce1890000d0c90611d649088815260200190565b60405180910390a1505050505050565b6060600180546108859061444b565b6000828410611da057818411611d995783611d9b565b815b61086e565b509092915050565b6000611db3600b5490565b905090565b6001600160a01b038216331415611e115760405162461bcd60e51b815260206004820152601960248201527f4552433732313a20617070726f766520746f2063616c6c657200000000000000604482015260640161097d565b3360008181526005602090815260408083206001600160a01b0387168085529252909120805460ff1916841515179055906001600160a01b03167f17307eab39ab6107e8899845ad3d59bd9653f200f220920489ca2b5937696c3183604051611e7e911515815260200190565b60405180910390a35050565b6000620f4240611e9a81846144a1565b6114f2633b9aca00856144a1565b600a546001600160a01b03163314611ef05760405162461bcd60e51b81526020600482018190526024820152600080516020614526833981519152604482015260640161097d565b601355565b611eff3383612c3a565b611f715760405162461bcd60e51b815260206004820152603160248201527f4552433732313a207472616e736665722063616c6c6572206973206e6f74206f60448201527f776e6572206e6f7220617070726f766564000000000000000000000000000000606482015260840161097d565b611f7d848484846131df565b50505050565b6000818152600260205260409020546060906001600160a01b03166120105760405162461bcd60e51b815260206004820152602f60248201527f4552433732314d657461646174613a2055524920717565727920666f72206e6f60448201527f6e6578697374656e7420746f6b656e0000000000000000000000000000000000606482015260840161097d565b600061201a613268565b9050600081511161203a5760405180602001604052806000815250611581565b8061204484613288565b604051602001612055929190614143565b6040516020818303038152906040529392505050565b6015546001600160a01b0316331461208257600080fd5b6040517f70a082310000000000000000000000000000000000000000000000000000000081526001600160a01b03848116600483015260009161212491603291908616906370a082319060240160206040518083038186803b1580156120e757600080fd5b505afa1580156120fb573d6000803e3d6000fd5b505050506040513d601f19601f8201168201806040525081019061211f9190613f02565b612913565b905060008167ffffffffffffffff81111561214f57634e487b7160e01b600052604160045260246000fd5b604051908082528060200260200182016040528015612178578160200160208202803683370190505b50905060008267ffffffffffffffff8111156121a457634e487b7160e01b600052604160045260246000fd5b6040519080825280602002602001820160405280156121cd578160200160208202803683370190505b50905060005b83811015612420576040517f2f745c590000000000000000000000000000000000000000000000000000000081526001600160a01b03888116600483015260006024830152871690632f745c599060440160206040518083038186803b15801561223c57600080fd5b505afa158015612250573d6000803e3d6000fd5b505050506040513d601f19601f820116820180604052508101906122749190613f02565b83828151811061229457634e487b7160e01b600052603260045260246000fd5b60200260200101818152505060006122d38483815181106122c557634e487b7160e01b600052603260045260246000fd5b6020026020010151886133d7565b9050866001600160a01b03166323b872dd893087868151811061230657634e487b7160e01b600052603260045260246000fd5b60209081029190910101516040516001600160e01b031960e086901b1681526001600160a01b0393841660048201529290911660248301526044820152606401600060405180830381600087803b15801561236057600080fd5b505af1158015612374573d6000803e3d6000fd5b5050505061239a8882602001518360400151846060015185608001518660a00151612f05565b8383815181106123ba57634e487b7160e01b600052603260045260246000fd5b6020026020010181815250508060e00151601460008585815181106123ef57634e487b7160e01b600052603260045260246000fd5b602002602001015181526020019081526020016000206007018190555050808061241890614486565b9150506121d3565b506018546040517f477aceb10000000000000000000000000000000000000000000000000000000081526001600160a01b039091169063477aceb19061246e908590859089906004016141a4565b600060405180830381600087803b15801561248857600080fd5b505af115801561249c573d6000803e3d6000fd5b50505050505050505050565b60006124b333611983565b9050600081116124c257600080fd5b6000805b82811015612538576000601460006124de338561119f565b815260200190815260200160002090506124fb8160000154610cfe565b815461250690611a1d565b6125109190614408565b61251a90846142a9565b4260069092019190915591508061253081614486565b9150506124c6565b506016546040517f40c10f19000000000000000000000000000000000000000000000000000000008152336004820152602481018390526001600160a01b03909116906340c10f1990604401600060405180830381600087803b15801561259e57600080fd5b505af11580156125b2573d6000803e3d6000fd5b505050505050565b601460205260009081526040902080546001820180549192916125dc9061444b565b80601f01602080910402602001604051908101604052809291908181526020018280546126089061444b565b80156126555780601f1061262a57610100808354040283529160200191612655565b820191906000526020600020905b81548152906001019060200180831161263857829003601f168201915b50505050509080600201805461266a9061444b565b80601f01602080910402602001604051908101604052809291908181526020018280546126969061444b565b80156126e35780601f106126b8576101008083540402835291602001916126e3565b820191906000526020600020905b8154815290600101906020018083116126c657829003601f168201915b5050505050908060030154908060040154908060050154908060060154908060070154905088565b600a546001600160a01b031633146127535760405162461bcd60e51b81526020600482018190526024820152600080516020614526833981519152604482015260640161097d565b601255565b600a546001600160a01b031633146127a05760405162461bcd60e51b81526020600482018190526024820152600080516020614526833981519152604482015260640161097d565b6001600160a01b03811661281c5760405162461bcd60e51b815260206004820152602660248201527f4f776e61626c653a206e6577206f776e657220697320746865207a65726f206160448201527f6464726573730000000000000000000000000000000000000000000000000000606482015260840161097d565b600a546040516001600160a01b038084169216907f8be0079c531659141344cd1fd0a4f28419497f9722a3daafe3b4186f6b6457e090600090a3600a80546001600160a01b0319166001600160a01b0392909216919091179055565b60006001600160e01b031982167f80ac58cd0000000000000000000000000000000000000000000000000000000014806128db57506001600160e01b031982167f5b5e139f00000000000000000000000000000000000000000000000000000000145b806107f457507f01ffc9a7000000000000000000000000000000000000000000000000000000006001600160e01b03198316146107f4565b600081831015612924575081611244565b5080611244565b600081831115612924575081611244565b600081815260046020526040902080546001600160a01b0319166001600160a01b038416908117909155819061297182611588565b6001600160a01b03167f8c5be1e5ebec7d5bd14f71427d1e84f3dd0314c0f7b2291e5b200ac8c7c3b92560405160405180910390a45050565b60006129b582611588565b90506129c38160008461350f565b6129ce60008361293c565b6001600160a01b03811660009081526003602052604081208054600192906129f7908490614408565b909155505060008281526002602052604080822080546001600160a01b0319169055518391906001600160a01b038416907fddf252ad1be2c89b69c2b068fc378daa952ba7f163c4a11628f55a4df523b3ef908390a45050565b600080612a6684600301548460030154611660565b90506000612a7c8560040154856004015461292b565b612a879060016142a9565b90506000612a966002436144a1565b600f54600588015491159250612aab916143e9565b8660070154612aba91906142a9565b6007870155600f546005860154612ad191906143e9565b8560070154612ae091906142a9565b60078601556119793382612af75786600101612afc565b876001015b8054612b079061444b565b80601f0160208091040260200160405190810160405280929190818152602001828054612b339061444b565b8015612b805780601f10612b5557610100808354040283529160200191612b80565b820191906000526020600020905b815481529060010190602001808311612b6357829003601f168201915b505050505083612b935788600201612b98565b876002015b8054612ba39061444b565b80601f0160208091040260200160405190810160405280929190818152602001828054612bcf9061444b565b8015612c1c5780601f10612bf157610100808354040283529160200191612c1c565b820191906000526020600020905b815481529060010190602001808311612bff57829003601f168201915b50505050508686612c358c600501548c600501546135cc565b612f05565b6000818152600260205260408120546001600160a01b0316612cb35760405162461bcd60e51b815260206004820152602c60248201527f4552433732313a206f70657261746f7220717565727920666f72206e6f6e657860448201526b34b9ba32b73a103a37b5b2b760a11b606482015260840161097d565b6000612cbe83611588565b9050806001600160a01b0316846001600160a01b03161480612cf95750836001600160a01b0316612cee84610908565b6001600160a01b0316145b8061086e57506001600160a01b0380821660009081526005602090815260408083209388168352929052205460ff1661086e565b826001600160a01b0316612d4082611588565b6001600160a01b031614612dbc5760405162461bcd60e51b815260206004820152602960248201527f4552433732313a207472616e73666572206f6620746f6b656e2074686174206960448201527f73206e6f74206f776e0000000000000000000000000000000000000000000000606482015260840161097d565b6001600160a01b038216612e375760405162461bcd60e51b8152602060048201526024808201527f4552433732313a207472616e7366657220746f20746865207a65726f2061646460448201527f7265737300000000000000000000000000000000000000000000000000000000606482015260840161097d565b612e4283838361350f565b612e4d60008261293c565b6001600160a01b0383166000908152600360205260408120805460019290612e76908490614408565b90915550506001600160a01b0382166000908152600360205260408120805460019290612ea49084906142a9565b909155505060008181526002602052604080822080546001600160a01b0319166001600160a01b0386811691821790925591518493918716917fddf252ad1be2c89b69c2b068fc378daa952ba7f163c4a11628f55a4df523b3ef91a4505050565b6000612f15600b80546001019055565b6000612f20600b5490565b9050612f2c8882613611565b604051806101000160405280828152602001888152602001878152602001868152602001858152602001848152602001428152602001612f756064600f548761086991906143e9565b90526000828152601460209081526040909120825181558282015180519192612fa692600185019290910190613afd565b5060408201518051612fc2916002840191602090910190613afd565b50606082015160038201556080820151600482015560a0820151600582015560c0820151600682015560e0909101516007909101556040518181527f176b02bb2d12439ff7a20b59f402cca16c76f50508b13ef3166a600eb719354a9060200160405180910390a1979650505050505050565b6000814442604051602001613054929190918252602082015260400190565b6040516020818303038152906040528051906020012060001c6107f491906144a1565b60008061308d83600601544261081f9190614408565b90506000600d5484600501546130a391906143e9565b6130af906127106143e9565b90506000633b9aca006422c2ed0000846130c981866143e9565b6130d391906143e9565b856130df8660146143e9565b6130e991906143e9565b6130f690620151806143e9565b6131009190614408565b61310a91906142c1565b61311491906142c1565b90506000620bdd8086600601544261312c9190614408565b111561317a57661eb208c2dc00008387600601544261314b9190614408565b61315890620bdd806142a9565b61316291906143e9565b61316d90600a6143e9565b61317791906142c1565b90505b61197981836142a9565b600080613193610100846144a1565b61319f856103e86143e9565b6131ac87620f42406143e9565b6131b691906142a9565b6131c091906142a9565b9050806131d1633b9aca00886142c1565b61196f90633b9aca006143e9565b6131ea848484612d2d565b6131f68484848461375f565b611f7d5760405162461bcd60e51b815260206004820152603260248201527f4552433732313a207472616e7366657220746f206e6f6e20455243373231526560448201527f63656976657220696d706c656d656e7465720000000000000000000000000000606482015260840161097d565b606060405180606001604052806023815260200161454660239139905090565b6060816132c9575060408051808201909152600181527f300000000000000000000000000000000000000000000000000000000000000060208201526107f7565b8160005b81156132f357806132dd81614486565b91506132ec9050600a836142c1565b91506132cd565b60008167ffffffffffffffff81111561331c57634e487b7160e01b600052604160045260246000fd5b6040519080825280601f01601f191660200182016040528015613346576020820181803683370190505b5090505b841561086e5761335b600183614408565b9150613368600a866144a1565b6133739060306142a9565b60f81b81838151811061339657634e487b7160e01b600052603260045260246000fd5b60200101907effffffffffffffffffffffffffffffffffffffffffffffffffffffffffffff1916908160001a9053506133d0600a866142c1565b945061334a565b61341f60405180610100016040528060008152602001606081526020016060815260200160008152602001600081526020016000815260200160008152602001600081525090565b600080600080600080600080896001600160a01b031663e14285bb8c6040518263ffffffff1660e01b815260040161345991815260200190565b60006040518083038186803b15801561347157600080fd5b505afa158015613485573d6000803e3d6000fd5b505050506040513d6000823e601f3d908101601f191682016040526134ad9190810190613f91565b975097509750975097509750975097506040518061010001604052808981526020018881526020018781526020018681526020018581526020016134f260018661292b565b815260208101939093526040909201529998505050505050505050565b6001600160a01b03831661356a5761356581600880546000838152600960205260408120829055600182018355919091527ff3f7a9fe364faab93b216da50a3214154f22a0a2b415b23a84c8169e8b636ee30155565b61358d565b816001600160a01b0316836001600160a01b03161461358d5761358d83826138bf565b6001600160a01b0382166135a9576135a48161395c565b610acf565b826001600160a01b0316826001600160a01b031614610acf57610acf8282613a35565b60008060026135db84866142a9565b6135e591906142c1565b905061086e6001606460115460646135fd9190614408565b61360790856143e9565b61086991906142c1565b6001600160a01b0382166136675760405162461bcd60e51b815260206004820181905260248201527f4552433732313a206d696e7420746f20746865207a65726f2061646472657373604482015260640161097d565b6000818152600260205260409020546001600160a01b0316156136cc5760405162461bcd60e51b815260206004820152601c60248201527f4552433732313a20746f6b656e20616c7265616479206d696e74656400000000604482015260640161097d565b6136d86000838361350f565b6001600160a01b03821660009081526003602052604081208054600192906137019084906142a9565b909155505060008181526002602052604080822080546001600160a01b0319166001600160a01b03861690811790915590518392907fddf252ad1be2c89b69c2b068fc378daa952ba7f163c4a11628f55a4df523b3ef908290a45050565b60006001600160a01b0384163b156138b757604051630a85bd0160e11b81526001600160a01b0385169063150b7a02906137a3903390899088908890600401614172565b602060405180830381600087803b1580156137bd57600080fd5b505af19250505080156137ed575060408051601f3d908101601f191682019092526137ea91810190613ece565b60015b61389d573d80801561381b576040519150601f19603f3d011682016040523d82523d6000602084013e613820565b606091505b5080516138955760405162461bcd60e51b815260206004820152603260248201527f4552433732313a207472616e7366657220746f206e6f6e20455243373231526560448201527f63656976657220696d706c656d656e7465720000000000000000000000000000606482015260840161097d565b805181602001fd5b6001600160e01b031916630a85bd0160e11b14905061086e565b50600161086e565b600060016138cc84611983565b6138d69190614408565b600083815260076020526040902054909150808214613929576001600160a01b03841660009081526006602090815260408083208584528252808320548484528184208190558352600790915290208190555b5060009182526007602090815260408084208490556001600160a01b039094168352600681528383209183525290812055565b60085460009061396e90600190614408565b600083815260096020526040812054600880549394509092849081106139a457634e487b7160e01b600052603260045260246000fd5b9060005260206000200154905080600883815481106139d357634e487b7160e01b600052603260045260246000fd5b6000918252602080832090910192909255828152600990915260408082208490558582528120556008805480613a1957634e487b7160e01b600052603160045260246000fd5b6001900381819060005260206000200160009055905550505050565b6000613a4083611983565b6001600160a01b039093166000908152600660209081526040808320868452825280832085905593825260079052919091209190915550565b828054613a859061444b565b90600052602060002090601f016020900481019282613aa75760008555613aed565b82601f10613ac05782800160ff19823516178555613aed565b82800160010185558215613aed579182015b82811115613aed578235825591602001919060010190613ad2565b50613af9929150613b71565b5090565b828054613b099061444b565b90600052602060002090601f016020900481019282613b2b5760008555613aed565b82601f10613b4457805160ff1916838001178555613aed565b82800160010185558215613aed579182015b82811115613aed578251825591602001919060010190613b56565b5b80821115613af95760008155600101613b72565b6000613b99613b9484614281565b614250565b9050828152838383011115613bad57600080fd5b828260208301376000602084830101529392505050565b803580151581146107f757600080fd5b60008083601f840112613be5578182fd5b50813567ffffffffffffffff811115613bfc578182fd5b602083019150836020828501011115613c1457600080fd5b9250929050565b600082601f830112613c2b578081fd5b61158183833560208501613b86565b600082601f830112613c4a578081fd5b8151613c58613b9482614281565b818152846020838601011115613c6c578283fd5b61086e82602083016020870161441f565b600060208284031215613c8e578081fd5b8135611581816144f7565b60008060408385031215613cab578081fd5b8235613cb6816144f7565b91506020830135613cc6816144f7565b809150509250929050565b600080600060608486031215613ce5578081fd5b8335613cf0816144f7565b92506020840135613d00816144f7565b929592945050506040919091013590565b60008060008060808587031215613d26578081fd5b8435613d31816144f7565b93506020850135613d41816144f7565b925060408501359150606085013567ffffffffffffffff811115613d63578182fd5b8501601f81018713613d73578182fd5b613d8287823560208401613b86565b91505092959194509250565b60008060408385031215613da0578182fd5b8235613dab816144f7565b9150613db960208401613bc4565b90509250929050565b600080600060608486031215613dd6578283fd5b8335613de1816144f7565b92506020840135613df1816144f7565b91506040840135613e01816144f7565b809150509250925092565b60008060008060808587031215613e21578384fd5b8435613e2c816144f7565b9350602085013567ffffffffffffffff80821115613e48578485fd5b613e5488838901613c1b565b94506040870135915080821115613e69578384fd5b50613e7687828801613c1b565b949793965093946060013593505050565b60008060408385031215613e99578182fd5b8235613ea4816144f7565b946020939093013593505050565b600060208284031215613ec3578081fd5b81356115818161450f565b600060208284031215613edf578081fd5b81516115818161450f565b600060208284031215613efb578081fd5b5035919050565b600060208284031215613f13578081fd5b5051919050565b600080600080600060608688031215613f31578283fd5b85359450602086013567ffffffffffffffff80821115613f4f578485fd5b613f5b89838a01613bd4565b90965094506040880135915080821115613f73578283fd5b50613f8088828901613bd4565b969995985093965092949392505050565b600080600080600080600080610100898b031215613fad578586fd5b88519750602089015167ffffffffffffffff80821115613fcb578788fd5b613fd78c838d01613c3a565b985060408b0151915080821115613fec578788fd5b50613ff98b828c01613c3a565b965050606089015194506080890151935060a0890151925060c0890151915060e089015190509295985092959890939650565b6000806040838503121561403e578182fd5b50508035926020909101359150565b600080600060608486031215614061578081fd5b833592506020840135915061407860408501613bc4565b90509250925092565b600080600060608486031215614095578081fd5b505081359360208301359350604090920135919050565b600080600080608085870312156140c1578182fd5b5050823594602084013594506040840135936060013592509050565b6000815180845260208085019450808401835b8381101561410c578151875295820195908201906001016140f0565b509495945050505050565b6000815180845261412f81602086016020860161441f565b601f01601f19169290920160200192915050565b6000835161415581846020880161441f565b83519083019061416981836020880161441f565b01949350505050565b60006001600160a01b038087168352808616602084015250836040830152608060608301526119796080830184614117565b6000606082526141b760608301866140dd565b82810360208401526141c981866140dd565b9150506001600160a01b0383166040830152949350505050565b6000602082526115816020830184614117565b60006101008a83528060208401526142108184018b614117565b90508281036040840152614224818a614117565b60608401989098525050608081019490945260a084019290925260c083015260e0909101529392505050565b604051601f8201601f1916810167ffffffffffffffff81118282101715614279576142796144e1565b604052919050565b600067ffffffffffffffff82111561429b5761429b6144e1565b50601f01601f191660200190565b600082198211156142bc576142bc6144b5565b500190565b6000826142d0576142d06144cb565b500490565b80825b60018086116142e75750614312565b8187048211156142f9576142f96144b5565b8086161561430657918102915b9490941c9380026142d8565b94509492505050565b6000611581600019848460008261433457506001611581565b8161434157506000611581565b816001811461435757600281146143615761438e565b6001915050611581565b60ff841115614372576143726144b5565b6001841b915084821115614388576143886144b5565b50611581565b5060208310610133831016604e8410600b84101617156143c1575081810a838111156143bc576143bc6144b5565b611581565b6143ce84848460016142d5565b8086048211156143e0576143e06144b5565b02949350505050565b6000816000190483118215151615614403576144036144b5565b500290565b60008282101561441a5761441a6144b5565b500390565b60005b8381101561443a578181015183820152602001614422565b83811115611f7d5750506000910152565b60028104600182168061445f57607f821691505b6020821081141561448057634e487b7160e01b600052602260045260246000fd5b50919050565b600060001982141561449a5761449a6144b5565b5060010190565b6000826144b0576144b06144cb565b500690565b634e487b7160e01b600052601160045260246000fd5b634e487b7160e01b600052601260045260246000fd5b634e487b7160e01b600052604160045260246000fd5b6001600160a01b038116811461450c57600080fd5b50565b6001600160e01b03198116811461450c57600080fdfe4f776e61626c653a2063616c6c6572206973206e6f7420746865206f776e657268747470733a2f2f6170692e76332e73747261696e7a2e746563682f73747261696e2fa2646970667358221220f8ad30af93a73125010538e0a0e94a74247b127e0e1dd7077b26b6b6d940c9c264736f6c63430008020033",
  "linkReferences": {},
  "deployedLinkReferences": {}
}